{
  "address": "0x1f424ffae1A36Ee71Fc236eDd7CFD0a486Ea84E0",
  "abi": [
    {
      "inputs": [
        {
          "internalType": "address",
          "name": "_factory",
          "type": "address"
        },
        {
          "internalType": "address[]",
          "name": "_tickSpacingDeployers",
          "type": "address[]"
        }
      ],
      "stateMutability": "nonpayable",
      "type": "constructor"
    },
    {
      "inputs": [
        {
          "internalType": "address",
          "name": "tokenA",
          "type": "address"
        },
        {
          "internalType": "address",
          "name": "tokenB",
          "type": "address"
        }
      ],
      "name": "getPool",
      "outputs": [
        {
          "internalType": "address",
          "name": "",
          "type": "address"
        }
      ],
      "stateMutability": "view",
      "type": "function"
    },
    {
      "inputs": [
        {
          "internalType": "address",
          "name": "poolAddress",
          "type": "address"
        },
        {
          "internalType": "bool",
          "name": "zeroForOne",
          "type": "bool"
        },
        {
          "internalType": "int256",
          "name": "amountSpecified",
          "type": "int256"
        },
        {
          "internalType": "uint160",
          "name": "sqrtPriceLimitX96",
          "type": "uint160"
        }
      ],
      "name": "quote",
      "outputs": [
        {
          "internalType": "int256",
          "name": "amount0",
          "type": "int256"
        },
        {
          "internalType": "int256",
          "name": "amount1",
          "type": "int256"
        }
      ],
      "stateMutability": "view",
      "type": "function"
    },
    {
      "inputs": [
        {
          "internalType": "bytes",
          "name": "path",
          "type": "bytes"
        },
        {
          "internalType": "uint256",
          "name": "amountIn",
          "type": "uint256"
        }
      ],
      "name": "quoteExactInput",
      "outputs": [
        {
          "internalType": "uint256",
          "name": "amountOut",
          "type": "uint256"
        }
      ],
      "stateMutability": "view",
      "type": "function"
    },
    {
      "inputs": [
        {
          "components": [
            {
              "internalType": "address",
              "name": "tokenIn",
              "type": "address"
            },
            {
              "internalType": "address",
              "name": "tokenOut",
              "type": "address"
            },
            {
              "internalType": "uint256",
              "name": "amountIn",
              "type": "uint256"
            },
            {
              "internalType": "uint160",
              "name": "sqrtPriceLimitX96",
              "type": "uint160"
            }
          ],
          "internalType": "struct QuoteExactInputSingleParams",
          "name": "params",
          "type": "tuple"
        }
      ],
      "name": "quoteExactInputSingle",
      "outputs": [
        {
          "internalType": "uint256",
          "name": "amountOut",
          "type": "uint256"
        }
      ],
      "stateMutability": "view",
      "type": "function"
    },
    {
      "inputs": [
        {
          "internalType": "uint256",
          "name": "",
          "type": "uint256"
        }
      ],
      "name": "tickSpacingDeployers",
      "outputs": [
        {
          "internalType": "address",
          "name": "",
          "type": "address"
        }
      ],
      "stateMutability": "view",
      "type": "function"
    }
  ],
  "transactionHash": "0x4d292cbf519f753bd492f6239a9fd5c78ed8ca8e64be23fd391cdc2f775d8522",
  "args": [
    "0x512eb749541B7cf294be882D636218c84a5e9E5F",
    [
      "0xDcFccf2e8c4EfBba9127B80eAc76c5A122125d29",
      "0x58b05074D52D1a84D8FfDAddA3c1b652e8C56994",
      "0xf9221dE143A0E57c324bF2a0f281e605e845D767",
      "0x5D433A94A4a2aA8f9AA34D8D15692Dc2E9960584"
    ]
  ],
  "numDeployments": 1,
  "solcInputHash": "f0b2d881e45caee9c176d948d2953183",
  "bytecode": "0x60a06040523480156200001157600080fd5b506040516200328038038062003280833981016040819052620000349162000102565b6001600160601b0319606083901b1660805280516200005b90600090602084019062000064565b505050620001d7565b828054828255906000526020600020908101928215620000bc579160200282015b82811115620000bc57825182546001600160a01b0319166001600160a01b0390911617825560209092019160019091019062000085565b50620000ca929150620000ce565b5090565b5b80821115620000ca5760008155600101620000cf565b80516001600160a01b0381168114620000fd57600080fd5b919050565b6000806040838503121562000115578182fd5b6200012083620000e5565b602084810151919350906001600160401b03808211156200013f578384fd5b818601915086601f83011262000153578384fd5b8151818111156200016057fe5b838102604051858282010181811085821117156200017a57fe5b604052828152858101935084860182860187018b101562000199578788fd5b8795505b83861015620001c657620001b181620000e5565b8552600195909501949386019386016200019d565b508096505050505050509250929050565b60805160601c613086620001fa600039806101bd528061029a52506130866000f3fe608060405234801561001057600080fd5b50600436106100675760003560e01c80635e5e6e0f116100505780635e5e6e0f146100a857806390405d36146100c8578063cdca1753146100e957610067565b8063245c79371461006c578063531aa03e14610095575b600080fd5b61007f61007a366004612f31565b6100fc565b60405161008c9190612f49565b60405180910390f35b61007f6100a3366004612d52565b610133565b6100bb6100b6366004612e8c565b610515565b60405161008c9190613006565b6100db6100d6366004612d8a565b61062c565b60405161008c929190612fc1565b6100bb6100f7366004612de0565b610985565b6000818154811061010c57600080fd5b60009182526020909120015473ffffffffffffffffffffffffffffffffffffffff16905081565b60008054819060010167ffffffffffffffff8111801561015257600080fd5b5060405190808252806020026020018201604052801561017c578160200160208202803683370190505b506040517fd9a641e100000000000000000000000000000000000000000000000000000000815290915073ffffffffffffffffffffffffffffffffffffffff7f0000000000000000000000000000000000000000000000000000000000000000169063d9a641e1906101f49087908790600401612f6a565b60206040518083038186803b15801561020c57600080fd5b505afa158015610220573d6000803e3d6000fd5b505050506040513d601f19601f820116820180604052508101906102449190612d36565b8160008151811061025157fe5b602002602001019073ffffffffffffffffffffffffffffffffffffffff16908173ffffffffffffffffffffffffffffffffffffffff168152505060005b6000548110156103cc577f000000000000000000000000000000000000000000000000000000000000000073ffffffffffffffffffffffffffffffffffffffff166323da36cc600083815481106102e157fe5b6000918252602090912001546040517fffffffff0000000000000000000000000000000000000000000000000000000060e084901b1681526103409173ffffffffffffffffffffffffffffffffffffffff169089908990600401612f91565b60206040518083038186803b15801561035857600080fd5b505afa15801561036c573d6000803e3d6000fd5b505050506040513d601f19601f820116820180604052508101906103909190612d36565b82826001018151811061039f57fe5b73ffffffffffffffffffffffffffffffffffffffff9092166020928302919091019091015260010161028e565b5060008060005b835181101561050857600073ffffffffffffffffffffffffffffffffffffffff1684828151811061040057fe5b602002602001015173ffffffffffffffffffffffffffffffffffffffff161461050057600084828151811061043157fe5b602002602001015173ffffffffffffffffffffffffffffffffffffffff16631a6865026040518163ffffffff1660e01b815260040160206040518083038186803b15801561047e57600080fd5b505afa158015610492573d6000803e3d6000fd5b505050506040513d601f19601f820116820180604052508101906104b69190612f01565b9050826fffffffffffffffffffffffffffffffff16816fffffffffffffffffffffffffffffffff1611156104fe578092508482815181106104f357fe5b602002602001015193505b505b6001016103d3565b5090925050505b92915050565b6020810151815160009173ffffffffffffffffffffffffffffffffffffffff808216908316109183916105489190610133565b905073ffffffffffffffffffffffffffffffffffffffff81166105a0576040517f08c379a000000000000000000000000000000000000000000000000000000000815260040161059790612fcf565b60405180910390fd5b60008061060983856105b58960400151610a35565b60608a015173ffffffffffffffffffffffffffffffffffffffff16156105df5789606001516100d6565b876105fe5773fffd8963efd1fc6a506488495d951d5263988d256100d6565b6401000276a461062c565b915091508361061b5781600003610620565b806000035b9450505050505b919050565b6000808361069b57604080517f08c379a000000000000000000000000000000000000000000000000000000000815260206004820152601e60248201527f616d6f756e745370656369666965642063616e6e6f74206265207a65726f0000604482015290519081900360640190fd5b60008085139080806106af8a8a8a8a610a67565b9250925092505b8051158015906106f657508673ffffffffffffffffffffffffffffffffffffffff16816040015173ffffffffffffffffffffffffffffffffffffffff1614155b1561094e57610703612cca565b604082015173ffffffffffffffffffffffffffffffffffffffff1681526060820151610732908c90868d610c71565b73ffffffffffffffffffffffffffffffffffffffff1660608401819052901515604080850191909152600292830b90920b602084015290830151610790918c919061077f9083908d610d06565b6080860151865161ffff8916610d87565b60c085015260a0840152608083015273ffffffffffffffffffffffffffffffffffffffff16604083015284156107ff576107d38160c00151826080015101610a35565b825103825260a08101516107f5906107ea90610a35565b602084015190611021565b602083015261083a565b61080c8160a00151610a35565b825101825260c08101516080820151610834916108299101610a35565b602084015190611037565b60208301525b806060015173ffffffffffffffffffffffffffffffffffffffff16826040015173ffffffffffffffffffffffffffffffffffffffff1614156108f3578060400151156108ca5760006108908c836020015161104d565b5050505050509150508a156108a3576000035b6108b1836080015182611121565b6fffffffffffffffffffffffffffffffff166080840152505b896108d95780602001516108e2565b60018160200151035b600290810b900b6060830152610948565b806000015173ffffffffffffffffffffffffffffffffffffffff16826040015173ffffffffffffffffffffffffffffffffffffffff16146109485761093b8260400151611265565b600290810b900b60608301525b506106b6565b8315158915151461096757602081015181518903610974565b8060000151880381602001515b909b909a5098505050505050505050565b60005b60008061099485611631565b91509150610a0460405180608001604052808473ffffffffffffffffffffffffffffffffffffffff1681526020018373ffffffffffffffffffffffffffffffffffffffff168152602001868152602001600073ffffffffffffffffffffffffffffffffffffffff16815250610515565b9350610a0f85611652565b15610a2457610a1d8561165a565b9450610a2e565b839250505061050f565b5050610988565b60007f80000000000000000000000000000000000000000000000000000000000000008210610a6357600080fd5b5090565b600080610a72612d06565b6000806000808a73ffffffffffffffffffffffffffffffffffffffff1663e76c01e46040518163ffffffff1660e01b815260040160c06040518083038186803b158015610abe57600080fd5b505afa158015610ad2573d6000803e3d6000fd5b505050506040513d60c0811015610ae857600080fd5b50805160208201516040830151606084015160809094015190995091965094509092509050610b188a8986611675565b8a73ffffffffffffffffffffffffffffffffffffffff1663d0c93a7c6040518163ffffffff1660e01b815260040160206040518083038186803b158015610b5e57600080fd5b505afa158015610b72573d6000803e3d6000fd5b505050506040513d6020811015610b8857600080fd5b810190808051906020019092919050505096506040518060a001604052808a8152602001600081526020018573ffffffffffffffffffffffffffffffffffffffff1681526020018460020b81526020018c73ffffffffffffffffffffffffffffffffffffffff16631a6865026040518163ffffffff1660e01b815260040160206040518083038186803b158015610c1e57600080fd5b505afa158015610c32573d6000803e3d6000fd5b505050506040513d6020811015610c4857600080fd5b50516fffffffffffffffffffffffffffffffff169052969b959a50959850939650505050505050565b6000806000610c82878787876117ae565b90935091507ffffffffffffffffffffffffffffffffffffffffffffffffffffffffffff27618600284900b1215610cdb577ffffffffffffffffffffffffffffffffffffffffffffffffffffffffffff276189250610cf1565b620d89e8600284900b1315610cf157620d89e892505b610cfa836117ca565b90509450945094915050565b600083610d41578173ffffffffffffffffffffffffffffffffffffffff168373ffffffffffffffffffffffffffffffffffffffff1611610d71565b8173ffffffffffffffffffffffffffffffffffffffff168373ffffffffffffffffffffffffffffffffffffffff16105b610d7b5782610d7d565b815b90505b9392505050565b600080600080612d348a610d9d57611b5d610da1565b611b6c5b905060008712610ed9576000610dca8888620f42400362ffffff16620f424062ffffff16611b7b565b9050610ddb8a8c8b8563ffffffff16565b9450848110610e0857899550610e01858862ffffff1689620f42400362ffffff16611c48565b9250610eb2565b610e148b8a838f611ca0565b95508573ffffffffffffffffffffffffffffffffffffffff168a73ffffffffffffffffffffffffffffffffffffffff161415610e9b576040517f08c379a00000000000000000000000000000000000000000000000000000000081526004018080602001828103825260218152602001806130596021913960400191505060405180910390fd5b610eaa868c8b8563ffffffff16565b945084880392505b610ed1868c8b8f610ec557611cb9610ec9565b611cc85b63ffffffff16565b935050611013565b612d348b610ee957611cb9610eed565b611cc85b9050610efe8a8c8b8463ffffffff16565b93508760000397506000881215610f7657604080517f08c379a000000000000000000000000000000000000000000000000000000000815260206004820152601760248201527f496e76616c696420616d6f756e74207265717569726564000000000000000000604482015290519081900360640190fd5b838810610f8557899550610fe4565b610f918b8a8a8f611cd7565b95508573ffffffffffffffffffffffffffffffffffffffff168a73ffffffffffffffffffffffffffffffffffffffff1614610fd857610fd5868c8b8463ffffffff16565b93505b87841115610fe4578793505b610ff3868c8b8563ffffffff16565b945061100f858862ffffff1689620f42400362ffffff16611c48565b9250505b509650965096509692505050565b8082038281131560008312151461050f57600080fd5b8181018281121560008312151461050f57600080fd5b6000806000806000806000808973ffffffffffffffffffffffffffffffffffffffff1663f30dba938a6040518263ffffffff1660e01b8152600401808260020b81526020019150506101006040518083038186803b1580156110ae57600080fd5b505afa1580156110c2573d6000803e3d6000fd5b505050506040513d6101008110156110d957600080fd5b508051602082015160408301516060840151608085015160a086015160c087015160e090970151959e50939c50919a5098509650945090925090509295985092959890939650565b60008082600f0b12156111cd57826fffffffffffffffffffffffffffffffff168260000384039150816fffffffffffffffffffffffffffffffff16106111c857604080517f08c379a000000000000000000000000000000000000000000000000000000000815260206004820152600260248201527f4c53000000000000000000000000000000000000000000000000000000000000604482015290519081900360640190fd5b61050f565b826fffffffffffffffffffffffffffffffff168284019150816fffffffffffffffffffffffffffffffff16101561050f57604080517f08c379a000000000000000000000000000000000000000000000000000000000815260206004820152600260248201527f4c41000000000000000000000000000000000000000000000000000000000000604482015290519081900360640190fd5b60006401000276a373ffffffffffffffffffffffffffffffffffffffff8316108015906112bb575073fffd8963efd1fc6a506488495d951d5263988d2673ffffffffffffffffffffffffffffffffffffffff8316105b61132657604080517f08c379a000000000000000000000000000000000000000000000000000000000815260206004820152600160248201527f5200000000000000000000000000000000000000000000000000000000000000604482015290519081900360640190fd5b77ffffffffffffffffffffffffffffffffffffffff00000000602083901b166fffffffffffffffffffffffffffffffff811160071b81811c67ffffffffffffffff811160061b90811c63ffffffff811160051b90811c61ffff811160041b90811c60ff8111600390811b91821c600f811160021b90811c918211600190811b92831c979088119617909417909217179091171717608081106113d057607f810383901c91506113da565b80607f0383901b91505b908002607f81811c60ff83811c9190911c800280831c81831c1c800280841c81841c1c800280851c81851c1c800280861c81861c1c800280871c81871c1c800280881c81881c1c800280891c81891c1c8002808a1c818a1c1c8002808b1c818b1c1c8002808c1c818c1c1c8002808d1c818d1c1c8002808e1c9c81901c9c909c1c80029c8d901c9e9d7fffffffffffffffffffffffffffffffffffffffffffffffffffffffffffffff808f0160401b60c09190911c678000000000000000161760c19b909b1c674000000000000000169a909a1760c29990991c672000000000000000169890981760c39790971c671000000000000000169690961760c49590951c670800000000000000169490941760c59390931c670400000000000000169290921760c69190911c670200000000000000161760c79190911c670100000000000000161760c89190911c6680000000000000161760c99190911c6640000000000000161760ca9190911c6620000000000000161760cb9190911c6610000000000000161760cc9190911c6608000000000000161760cd9190911c66040000000000001617693627a301d71055774c8581027ffffffffffffffffffffffffffffffffffd709b7e5480fba5a50fed5e62ffc5568101608090811d906fdb2df09e81959a81455e260799a0632f8301901d600281810b9083900b14611622578873ffffffffffffffffffffffffffffffffffffffff166115f9826117ca565b73ffffffffffffffffffffffffffffffffffffffff16111561161b578161161d565b805b611624565b815b9998505050505050505050565b60008061163e8382611ce7565b611649846014611ce7565b91509150915091565b51603c111590565b606061050f60148084510384611de79092919063ffffffff16565b6000836116e5578173ffffffffffffffffffffffffffffffffffffffff168373ffffffffffffffffffffffffffffffffffffffff161180156116e0575073fffd8963efd1fc6a506488495d951d5263988d2673ffffffffffffffffffffffffffffffffffffffff8416105b61173a565b8173ffffffffffffffffffffffffffffffffffffffff168373ffffffffffffffffffffffffffffffffffffffff1610801561173a57506401000276a373ffffffffffffffffffffffffffffffffffffffff8416115b9050806117a857604080517f08c379a000000000000000000000000000000000000000000000000000000000815260206004820152601c60248201527f7371727450726963654c696d6974206f7574206f6620626f756e647300000000604482015290519081900360640190fd5b50505050565b6000806117bd86868686611fce565b9150915094509492505050565b60008060008360020b126117e1578260020b6117e9565b8260020b6000035b9050620d89e881111561185d57604080517f08c379a000000000000000000000000000000000000000000000000000000000815260206004820152600160248201527f5400000000000000000000000000000000000000000000000000000000000000604482015290519081900360640190fd5b60006001821661187e57700100000000000000000000000000000000611890565b6ffffcb933bd6fad37aa2d162d1a5940015b70ffffffffffffffffffffffffffffffffff16905060028216156118c4576ffff97272373d413259a46990580e213a0260801c5b60048216156118e3576ffff2e50f5f656932ef12357cf3c7fdcc0260801c5b6008821615611902576fffe5caca7e10e4e61c3624eaa0941cd00260801c5b6010821615611921576fffcb9843d60f6159c9db58835c9266440260801c5b6020821615611940576fff973b41fa98c081472e6896dfb254c00260801c5b604082161561195f576fff2ea16466c96a3843ec78b326b528610260801c5b608082161561197e576ffe5dee046a99a2a811c461f1969c30530260801c5b61010082161561199e576ffcbe86c7900a88aedcffc83b479aa3a40260801c5b6102008216156119be576ff987a7253ac413176f2b074cf7815e540260801c5b6104008216156119de576ff3392b0822b70005940c7a398e4b70f30260801c5b6108008216156119fe576fe7159475a2c29b7443b29c7fa6e889d90260801c5b611000821615611a1e576fd097f3bdfd2022b8845ad8f792aa58250260801c5b612000821615611a3e576fa9f746462d870fdf8a65dc1f90e061e50260801c5b614000821615611a5e576f70d869a156d2a1b890bb3df62baf32f70260801c5b618000821615611a7e576f31be135f97d08fd981231505542fcfa60260801c5b62010000821615611a9f576f09aa508b5b7a84e1c677de54f3e99bc90260801c5b62020000821615611abf576e5d6af8dedb81196699c329225ee6040260801c5b62040000821615611ade576d2216e584f5fa1ea926041bedfe980260801c5b62080000821615611afb576b048a170391f7dc42444e8fa20260801c5b60008460020b1315611b3457807fffffffffffffffffffffffffffffffffffffffffffffffffffffffffffffffff81611b3057fe5b0490505b640100000000810615611b48576001611b4b565b60005b60ff16602082901c0192505050919050565b6000610d7d838584600161223b565b6000610d7d8484846001612359565b600080807fffffffffffffffffffffffffffffffffffffffffffffffffffffffffffffffff85870986860292508281109083900303905080611bcf5760008411611bc457600080fd5b508290049050610d80565b808411611bdb57600080fd5b6000848688096000868103871696879004966002600389028118808a02820302808a02820302808a02820302808a02820302808a02820302808a02909103029181900381900460010186841190950394909402919094039290920491909117919091029150509392505050565b6000611c55848484611b7b565b905060008280611c6157fe5b8486091115610d80577fffffffffffffffffffffffffffffffffffffffffffffffffffffffffffffffff8110611c9657600080fd5b6001019392505050565b6000611cb08585858560016124a1565b95945050505050565b6000610d7d8385846000612359565b6000610d7d848484600061223b565b6000611cb08585858560006124a1565b600081826014011015611d5b57604080517f08c379a000000000000000000000000000000000000000000000000000000000815260206004820152601260248201527f746f416464726573735f6f766572666c6f770000000000000000000000000000604482015290519081900360640190fd5b8160140183511015611dce57604080517f08c379a000000000000000000000000000000000000000000000000000000000815260206004820152601560248201527f746f416464726573735f6f75744f66426f756e64730000000000000000000000604482015290519081900360640190fd5b5001602001516c01000000000000000000000000900490565b60608182601f011015611e5b57604080517f08c379a000000000000000000000000000000000000000000000000000000000815260206004820152600e60248201527f736c6963655f6f766572666c6f77000000000000000000000000000000000000604482015290519081900360640190fd5b828284011015611ecc57604080517f08c379a000000000000000000000000000000000000000000000000000000000815260206004820152600e60248201527f736c6963655f6f766572666c6f77000000000000000000000000000000000000604482015290519081900360640190fd5b81830184511015611f3e57604080517f08c379a000000000000000000000000000000000000000000000000000000000815260206004820152601160248201527f736c6963655f6f75744f66426f756e6473000000000000000000000000000000604482015290519081900360640190fd5b606082158015611f5d5760405191506000825260208201604052611fc5565b6040519150601f8416801560200281840101858101878315602002848b0101015b81831015611f96578051835260209283019201611f7e565b5050858452601f017fffffffffffffffffffffffffffffffffffffffffffffffffffffffffffffffe016604052505b50949350505050565b6000808581600286810b9088900b81611fe357fe5b05905060008760020b12801561200a57508560020b8760020b8161200357fe5b0760020b15155b15612032577fffffffffffffffffffffffffffffffffffffffffffffffffffffffffffffffff015b841561214d576000806120448361295e565b604080517fc677e3e0000000000000000000000000000000000000000000000000000000008152600184810b6004830152915193955091935060ff84161b80017fffffffffffffffffffffffffffffffffffffffffffffffffffffffffffffffff0191600091839173ffffffffffffffffffffffffffffffffffffffff89169163c677e3e0916024808301926020929190829003018186803b1580156120e957600080fd5b505afa1580156120fd573d6000803e3d6000fd5b505050506040513d602081101561211357600080fd5b505116801515975090508661212f57898360ff16860302612142565b8961213982612970565b840360ff168603025b975050505050612230565b60008061215c8360010161295e565b91509150600060018260ff166001901b031990506000818673ffffffffffffffffffffffffffffffffffffffff1663c677e3e0866040518263ffffffff1660e01b8152600401808260010b815260200191505060206040518083038186803b1580156121c757600080fd5b505afa1580156121db573d6000803e3d6000fd5b505050506040513d60208110156121f157600080fd5b505116801515975090508661221357898360ff0360ff16866001010102612229565b898361221e83612a1d565b0360ff168660010101025b9750505050505b505094509492505050565b60008473ffffffffffffffffffffffffffffffffffffffff168473ffffffffffffffffffffffffffffffffffffffff1610156122d857604080517f08c379a000000000000000000000000000000000000000000000000000000000815260206004820152601360248201527f496e76616c69642070726963652072616e676500000000000000000000000000604482015290519081900360640190fd5b73ffffffffffffffffffffffffffffffffffffffff85850316826123255761232081856fffffffffffffffffffffffffffffffff166c01000000000000000000000000611b7b565b61234f565b61234f81856fffffffffffffffffffffffffffffffff166c01000000000000000000000000611c48565b9695505050505050565b600073ffffffffffffffffffffffffffffffffffffffff858503811690851681106123e557604080517f08c379a000000000000000000000000000000000000000000000000000000000815260206004820152601360248201527f496e76616c69642070726963652064656c746100000000000000000000000000604482015290519081900360640190fd5b7bffffffffffffffffffffffffffffffff000000000000000000000000606085901b16836124545761244f61243183838973ffffffffffffffffffffffffffffffffffffffff16611b7b565b60018973ffffffffffffffffffffffffffffffffffffffff16611b7b565b612496565b61249661247883838973ffffffffffffffffffffffffffffffffffffffff16611c48565b60018973ffffffffffffffffffffffffffffffffffffffff16611c48565b979650505050505050565b600073ffffffffffffffffffffffffffffffffffffffff861661252557604080517f08c379a000000000000000000000000000000000000000000000000000000000815260206004820152601460248201527f50726963652063616e6e6f74206265207a65726f000000000000000000000000604482015290519081900360640190fd5b6fffffffffffffffffffffffffffffffff85166125a357604080517f08c379a000000000000000000000000000000000000000000000000000000000815260206004820152601860248201527f4c69717569646974792063616e6e6f74206265207a65726f0000000000000000604482015290519081900360640190fd5b836125af575084611cb0565b81151583151514156127ac577bffffffffffffffffffffffffffffffff000000000000000000000000606086901b1682156126825773ffffffffffffffffffffffffffffffffffffffff87168581029086828161260857fe5b041415612646578181018281106126445761263a838a73ffffffffffffffffffffffffffffffffffffffff1683611c48565b9350505050611cb0565b505b61267982612674888b73ffffffffffffffffffffffffffffffffffffffff16868161266d57fe5b0490612c00565b612c10565b92505050611cb0565b73ffffffffffffffffffffffffffffffffffffffff8716858102908682816126a657fe5b041461271357604080517f08c379a000000000000000000000000000000000000000000000000000000000815260206004820152601060248201527f50726f64756374206f766572666c6f7700000000000000000000000000000000604482015290519081900360640190fd5b80821161278157604080517f08c379a000000000000000000000000000000000000000000000000000000000815260206004820152601560248201527f44656e6f6d696e61746f7220756e646572666c6f770000000000000000000000604482015290519081900360640190fd5b6126796127a7838a73ffffffffffffffffffffffffffffffffffffffff16848603611c48565b612ca7565b8115612848576128416127a773ffffffffffffffffffffffffffffffffffffffff861115612803576127fe866c01000000000000000000000000896fffffffffffffffffffffffffffffffff16611b7b565b612824565b6fffffffffffffffffffffffffffffffff8716606087901b8161282257fe5b045b73ffffffffffffffffffffffffffffffffffffffff891690612c00565b9050611cb0565b600073ffffffffffffffffffffffffffffffffffffffff85111561289557612890856c01000000000000000000000000886fffffffffffffffffffffffffffffffff16611c48565b6128b5565b6128b5606086901b6fffffffffffffffffffffffffffffffff8816612c10565b9050808773ffffffffffffffffffffffffffffffffffffffff161161293b57604080517f08c379a000000000000000000000000000000000000000000000000000000000815260206004820152601a60248201527f5072696365202d2071756f7469656e7420756e646572666c6f77000000000000604482015290519081900360640190fd5b73ffffffffffffffffffffffffffffffffffffffff871603905095945050505050565b60020b600881901d9161010090910790565b600080821161297e57600080fd5b700100000000000000000000000000000000821061299e57608091821c91015b6801000000000000000082106129b657604091821c91015b64010000000082106129ca57602091821c91015b6201000082106129dc57601091821c91015b61010082106129ed57600891821c91015b601082106129fd57600491821c91015b60048210612a0d57600291821c91015b6002821061062757600101919050565b6000808211612a2b57600080fd5b5060ff6fffffffffffffffffffffffffffffffff821615612a6d577fffffffffffffffffffffffffffffffffffffffffffffffffffffffffffffff8001612a75565b608082901c91505b67ffffffffffffffff821615612aac577fffffffffffffffffffffffffffffffffffffffffffffffffffffffffffffffc001612ab4565b604082901c91505b63ffffffff821615612ae7577fffffffffffffffffffffffffffffffffffffffffffffffffffffffffffffffe001612aef565b602082901c91505b61ffff821615612b20577ffffffffffffffffffffffffffffffffffffffffffffffffffffffffffffffff001612b28565b601082901c91505b60ff821615612b58577ffffffffffffffffffffffffffffffffffffffffffffffffffffffffffffffff801612b60565b600882901c91505b600f821615612b90577ffffffffffffffffffffffffffffffffffffffffffffffffffffffffffffffffc01612b98565b600482901c91505b6003821615612bc8577ffffffffffffffffffffffffffffffffffffffffffffffffffffffffffffffffe01612bd0565b600282901c91505b6001821615610627577fffffffffffffffffffffffffffffffffffffffffffffffffffffffffffffffff01919050565b8082018281101561050f57600080fd5b6000808211612c8057604080517f08c379a000000000000000000000000000000000000000000000000000000000815260206004820152601060248201527f4469766973696f6e206279207a65726f00000000000000000000000000000000604482015290519081900360640190fd5b818381612c8957fe5b0490506000828481612c9757fe5b06111561050f5760010192915050565b8073ffffffffffffffffffffffffffffffffffffffff8116811461062757600080fd5b6040805160e081018252600080825260208201819052918101829052606081018290526080810182905260a0810182905260c081019190915290565b6040805160a08101825260008082526020820181905291810182905260608101829052608081019190915290565bfe5b600060208284031215612d47578081fd5b8151610d8081613033565b60008060408385031215612d64578081fd5b8235612d6f81613033565b91506020830135612d7f81613033565b809150509250929050565b60008060008060808587031215612d9f578182fd5b8435612daa81613033565b935060208501358015158114612dbe578283fd5b9250604085013591506060850135612dd581613033565b939692955090935050565b60008060408385031215612df2578182fd5b823567ffffffffffffffff80821115612e09578384fd5b818501915085601f830112612e1c578384fd5b8135602082821115612e2a57fe5b612e5a817fffffffffffffffffffffffffffffffffffffffffffffffffffffffffffffffe0601f8501160161300f565b92508183528781838601011115612e6f578586fd5b818185018285013790820181019490945295939092013593505050565b600060808284031215612e9d578081fd5b6040516080810181811067ffffffffffffffff82111715612eba57fe5b6040528235612ec881613033565b81526020830135612ed881613033565b6020820152604083810135908201526060830135612ef581613033565b60608201529392505050565b600060208284031215612f12578081fd5b81516fffffffffffffffffffffffffffffffff81168114610d80578182fd5b600060208284031215612f42578081fd5b5035919050565b73ffffffffffffffffffffffffffffffffffffffff91909116815260200190565b73ffffffffffffffffffffffffffffffffffffffff92831681529116602082015260400190565b73ffffffffffffffffffffffffffffffffffffffff93841681529183166020830152909116604082015260600190565b918252602082015260400190565b6020808252600e908201527f506f6f6c206e6f7420666f756e64000000000000000000000000000000000000604082015260600190565b90815260200190565b60405181810167ffffffffffffffff8111828210171561302b57fe5b604052919050565b73ffffffffffffffffffffffffffffffffffffffff8116811461305557600080fd5b5056fe546172676574207072696365207265616368656420756e65787065637465646c79a164736f6c6343000706000a",
  "devdoc": {
    "details": "This quoter is gas-optimized for on-chain usage and provides mathematically identical results to the official Algebra QuoterV2 by using the same PriceMovementMath library",
    "kind": "dev",
    "methods": {
      "constructor": {
        "params": {
          "_factory": "The address of the Algebra factory",
          "_tickSpacingDeployers": "The addresses of tick spacing deployers"
        }
      },
      "getPool(address,address)": {
        "params": {
          "tokenA": "The first token of the pair",
          "tokenB": "The second token of the pair"
        },
        "returns": {
          "_0": "The address of the most liquid pool, or address(0) if none found"
        }
      },
      "quote(address,bool,int256,uint160)": {
        "params": {
          "amountSpecified": "The amount of the swap, which implicitly configures the swap as exact input or exact output",
          "poolAddress": "The address of the pool to quote against",
          "sqrtPriceLimitX96": "The Q64.96 sqrt price limit. If zero for one, the price cannot be less than this value after the swap. If one for zero, the price cannot be greater than this value after the swap",
          "zeroForOne": "Whether the amount in is token0 or token1"
        },
        "returns": {
          "amount0": "The amount0 delta of the swap",
          "amount1": "The amount1 delta of the swap"
        }
      },
      "quoteExactInput(bytes,uint256)": {
        "params": {
          "amountIn": "The amount of the first token to swap",
          "path": "The path of the swap, i.e. each token pair encoded as (token0, token1)"
        },
        "returns": {
          "amountOut": "The amount of the last token that would be received"
        }
      },
      "quoteExactInputSingle((address,address,uint256,uint160))": {
        "params": {
          "params": "The parameters necessary for the swap, encoded as QuoteExactInputSingleParams"
        },
        "returns": {
          "amountOut": "The amount of the output token that would be received"
        }
      }
    },
    "stateVariables": {
      "factory": {
        "details": "The Algebra factory contract"
      },
      "tickSpacingDeployers": {
        "details": "Array of tick spacing deployers for finding the most liquid pool"
      }
    },
    "title": "Algebra Integral Static Quoter",
    "version": 1
  },
  "userdoc": {
    "kind": "user",
    "methods": {
      "getPool(address,address)": {
        "notice": "Finds the most liquid pool for a token pair across all deployers"
      },
      "quote(address,bool,int256,uint160)": {
        "notice": "Returns the amount0 delta and amount1 delta for a given swap"
      },
      "quoteExactInput(bytes,uint256)": {
        "notice": "Returns the amount out received for a given exact input multi-hop swap without executing the swap"
      },
      "quoteExactInputSingle((address,address,uint256,uint160))": {
        "notice": "Returns the amount out received for a given exact input swap without executing the swap"
      }
    },
    "notice": "Provides quotes for swaps against Algebra Integral pools using native Algebra math",
    "version": 1
  },
  "storageLayout": {
    "storage": [
      {
        "astId": 3450,
        "contract": "contracts/AlgebraIntegralQuoter/AlgebraIntegralStaticQuoter.sol:AlgebraIntegralStaticQuoter",
        "label": "tickSpacingDeployers",
        "offset": 0,
        "slot": "0",
        "type": "t_array(t_address)dyn_storage"
      }
    ],
    "types": {
      "t_address": {
        "encoding": "inplace",
        "label": "address",
        "numberOfBytes": "20"
      },
      "t_array(t_address)dyn_storage": {
        "base": "t_address",
        "encoding": "dynamic_array",
        "label": "address[]",
        "numberOfBytes": "32"
      }
    }
  }
}